{"abi":[{"type":"constructor","inputs":[],"stateMutability":"nonpayable"},{"type":"fallback","stateMutability":"payable"},{"type":"receive","stateMutability":"payable"},{"type":"function","name":"acceptOwnership","inputs":[],"outputs":[],"stateMutability":"nonpayable"},{"type":"function","name":"callbackGasLimit","inputs":[],"outputs":[{"name":"","type":"uint32","internalType":"uint32"}],"stateMutability":"view"},{"type":"function","name":"cancelGame","inputs":[],"outputs":[],"stateMutability":"nonpayable"},{"type":"function","name":"fee","inputs":[],"outputs":[{"name":"","type":"uint256","internalType":"uint256"}],"stateMutability":"view"},{"type":"function","name":"gameId","inputs":[],"outputs":[{"name":"","type":"uint256","internalType":"uint256"}],"stateMutability":"view"},{"type":"function","name":"gameStarted","inputs":[],"outputs":[{"name":"","type":"bool","internalType":"bool"}],"stateMutability":"view"},{"type":"function","name":"getBalance","inputs":[],"outputs":[{"name":"","type":"uint256","internalType":"uint256"}],"stateMutability":"view"},{"type":"function","name":"getLinkToken","inputs":[],"outputs":[{"name":"","type":"address","internalType":"contract LinkTokenInterface"}],"stateMutability":"view"},{"type":"function","name":"i_vrfV2PlusWrapper","inputs":[],"outputs":[{"name":"","type":"address","internalType":"contract IVRFV2PlusWrapper"}],"stateMutability":"view"},{"type":"function","name":"joinGame","inputs":[],"outputs":[],"stateMutability":"payable"},{"type":"function","name":"keyHash","inputs":[],"outputs":[{"name":"","type":"bytes32","internalType":"bytes32"}],"stateMutability":"view"},{"type":"function","name":"linkAddress","inputs":[],"outputs":[{"name":"","type":"address","internalType":"address"}],"stateMutability":"view"},{"type":"function","name":"numWords","inputs":[],"outputs":[{"name":"","type":"uint32","internalType":"uint32"}],"stateMutability":"view"},{"type":"function","name":"owner","inputs":[],"outputs":[{"name":"","type":"address","internalType":"address"}],"stateMutability":"view"},{"type":"function","name":"players","inputs":[{"name":"","type":"uint256","internalType":"uint256"}],"outputs":[{"name":"","type":"address","internalType":"address"}],"stateMutability":"view"},{"type":"function","name":"rawFulfillRandomWords","inputs":[{"name":"_requestId","type":"uint256","internalType":"uint256"},{"name":"_randomWords","type":"uint256[]","internalType":"uint256[]"}],"outputs":[],"stateMutability":"nonpayable"},{"type":"function","name":"requestConfirmations","inputs":[],"outputs":[{"name":"","type":"uint16","internalType":"uint16"}],"stateMutability":"view"},{"type":"function","name":"startGame","inputs":[{"name":"_maxPlayers","type":"uint8","internalType":"uint8"},{"name":"_entryFee","type":"uint256","internalType":"uint256"}],"outputs":[],"stateMutability":"nonpayable"},{"type":"function","name":"transferOwnership","inputs":[{"name":"to","type":"address","internalType":"address"}],"outputs":[],"stateMutability":"nonpayable"},{"type":"function","name":"wrapperAddress","inputs":[],"outputs":[{"name":"","type":"address","internalType":"address"}],"stateMutability":"view"},{"type":"event","name":"GameCancelled","inputs":[{"name":"gameId","type":"uint256","indexed":false,"internalType":"uint256"}],"anonymous":false},{"type":"event","name":"GameEnded","inputs":[{"name":"gameId","type":"uint256","indexed":false,"internalType":"uint256"},{"name":"winner","type":"address","indexed":false,"internalType":"address"},{"name":"requestId","type":"uint256","indexed":false,"internalType":"uint256"}],"anonymous":false},{"type":"event","name":"GameStarted","inputs":[{"name":"gameId","type":"uint256","indexed":false,"internalType":"uint256"},{"name":"maxPlayers","type":"uint8","indexed":false,"internalType":"uint8"},{"name":"entryFee","type":"uint256","indexed":false,"internalType":"uint256"}],"anonymous":false},{"type":"event","name":"OwnershipTransferRequested","inputs":[{"name":"from","type":"address","indexed":true,"internalType":"address"},{"name":"to","type":"address","indexed":true,"internalType":"address"}],"anonymous":false},{"type":"event","name":"OwnershipTransferred","inputs":[{"name":"from","type":"address","indexed":true,"internalType":"address"},{"name":"to","type":"address","indexed":true,"internalType":"address"}],"anonymous":false},{"type":"event","name":"PlayerJoined","inputs":[{"name":"gameId","type":"uint256","indexed":false,"internalType":"uint256"},{"name":"player","type":"address","indexed":false,"internalType":"address"}],"anonymous":false},{"type":"error","name":"OnlyVRFWrapperCanFulfill","inputs":[{"name":"have","type":"address","internalType":"address"},{"name":"want","type":"address","internalType":"address"}]}],"bytecode":{"object":"0x60c0604052620186a060045f6101000a81548163ffffffff021916908363ffffffff16021790555060036004806101000a81548161ffff021916908361ffff1602179055506001600460066101000a81548163ffffffff021916908363ffffffff16021790555073779877a7b0d9e8603169ddbd7836e478b46247896004600a6101000a81548173ffffffffffffffffffffffffffffffffffffffff021916908373ffffffffffffffffffffffffffffffffffffffff16021790555073195f15f2d49d693ce265b4fb0fddbe15b1850cc160055f6101000a81548173ffffffffffffffffffffffffffffffffffffffff021916908373ffffffffffffffffffffffffffffffffffffffff1602179055503480156200011b575f80fd5b5033805f60055f9054906101000a900473ffffffffffffffffffffffffffffffffffffffff165f8190508073ffffffffffffffffffffffffffffffffffffffff16631c4695f46040518163ffffffff1660e01b8152600401602060405180830381865afa1580156200018f573d5f803e3d5ffd5b505050506040513d601f19601f82011682018060405250810190620001b59190620004af565b73ffffffffffffffffffffffffffffffffffffffff1660808173ffffffffffffffffffffffffffffffffffffffff16815250508073ffffffffffffffffffffffffffffffffffffffff1660a08173ffffffffffffffffffffffffffffffffffffffff168152505050505f73ffffffffffffffffffffffffffffffffffffffff168273ffffffffffffffffffffffffffffffffffffffff16036200028f576040517f08c379a000000000000000000000000000000000000000000000000000000000815260040162000286906200053d565b60405180910390fd5b815f806101000a81548173ffffffffffffffffffffffffffffffffffffffff021916908373ffffffffffffffffffffffffffffffffffffffff1602179055505f73ffffffffffffffffffffffffffffffffffffffff168173ffffffffffffffffffffffffffffffffffffffff1614620003145762000313816200031d60201b60201c565b5b505050620005cb565b3373ffffffffffffffffffffffffffffffffffffffff168173ffffffffffffffffffffffffffffffffffffffff16036200038e576040517f08c379a00000000000000000000000000000000000000000000000000000000081526004016200038590620005ab565b60405180910390fd5b8060015f6101000a81548173ffffffffffffffffffffffffffffffffffffffff021916908373ffffffffffffffffffffffffffffffffffffffff1602179055508073ffffffffffffffffffffffffffffffffffffffff165f8054906101000a900473ffffffffffffffffffffffffffffffffffffffff1673ffffffffffffffffffffffffffffffffffffffff167fed8889f560326eb138920d842192f0eb3dd22b4f139c87a2c57538e05bae127860405160405180910390a350565b5f80fd5b5f73ffffffffffffffffffffffffffffffffffffffff82169050919050565b5f62000479826200044e565b9050919050565b6200048b816200046d565b811462000496575f80fd5b50565b5f81519050620004a98162000480565b92915050565b5f60208284031215620004c757620004c66200044a565b5b5f620004d68482850162000499565b91505092915050565b5f82825260208201905092915050565b7f43616e6e6f7420736574206f776e657220746f207a65726f00000000000000005f82015250565b5f62000525601883620004df565b91506200053282620004ef565b602082019050919050565b5f6020820190508181035f830152620005568162000517565b9050919050565b7f43616e6e6f74207472616e7366657220746f2073656c660000000000000000005f82015250565b5f62000593601783620004df565b9150620005a0826200055d565b602082019050919050565b5f6020820190508181035f830152620005c48162000585565b9050919050565b60805160a0516122a1620006105f395f81816104410152818161072a015281816111cc015281816112a4015261134b01525f8181610ae3015261126801526122a15ff3fe608060405260043610610122575f3560e01c80639ed0868d1161009f578063ddca3f4311610063578063ddca3f4314610357578063e76d516814610381578063e849c38e146103ab578063f2fde38b146103d3578063f71d96cb146103fb57610129565b80639ed0868d146102b9578063b0fb162f146102e3578063d4f77b1c1461030d578063d7c81b5514610317578063d84c1ac91461034157610129565b806361728f39116100e657806361728f39146101fb57806379ba5097146102255780637ccfd7fc1461023b5780637df8b802146102655780638da5cb5b1461028f57610129565b806312065fe01461012b5780631fe543e314610155578063235cea981461017d57806324f74697146101a75780635e123ce4146101d157610129565b3661012957005b005b348015610136575f80fd5b5061013f610437565b60405161014c9190611432565b60405180910390f35b348015610160575f80fd5b5061017b600480360381019061017691906115d6565b61043e565b005b348015610188575f80fd5b506101916104e3565b60405161019e919061166f565b60405180910390f35b3480156101b2575f80fd5b506101bb610509565b6040516101c891906116a6565b60405180910390f35b3480156101dc575f80fd5b506101e561051e565b6040516101f291906116d9565b60405180910390f35b348015610206575f80fd5b5061020f610531565b60405161021c919061170a565b60405180910390f35b348015610230575f80fd5b50610239610537565b005b348015610246575f80fd5b5061024f6106c6565b60405161025c91906116a6565b60405180910390f35b348015610270575f80fd5b506102796106dc565b604051610286919061166f565b60405180910390f35b34801561029a575f80fd5b506102a3610701565b6040516102b0919061166f565b60405180910390f35b3480156102c4575f80fd5b506102cd610728565b6040516102da919061177e565b60405180910390f35b3480156102ee575f80fd5b506102f761074c565b60405161030491906117b3565b60405180910390f35b61031561075e565b005b348015610322575f80fd5b5061032b61090d565b6040516103389190611432565b60405180910390f35b34801561034c575f80fd5b50610355610913565b005b348015610362575f80fd5b5061036b610ada565b6040516103789190611432565b60405180910390f35b34801561038c575f80fd5b50610395610ae0565b6040516103a291906117ec565b60405180910390f35b3480156103b6575f80fd5b506103d160048036038101906103cc919061183b565b610b07565b005b3480156103de575f80fd5b506103f960048036038101906103f491906118a3565b610c57565b005b348015610406575f80fd5b50610421600480360381019061041c91906118ce565b610c6b565b60405161042e919061166f565b60405180910390f35b5f47905090565b5f7f000000000000000000000000000000000000000000000000000000000000000090508073ffffffffffffffffffffffffffffffffffffffff163373ffffffffffffffffffffffffffffffffffffffff16146104d45733816040517f8ba9316e0000000000000000000000000000000000000000000000000000000081526004016104cb9291906118f9565b60405180910390fd5b6104de8383610ca6565b505050565b6004600a9054906101000a900473ffffffffffffffffffffffffffffffffffffffff1681565b60045f9054906101000a900463ffffffff1681565b600760019054906101000a900460ff1681565b60035481565b60015f9054906101000a900473ffffffffffffffffffffffffffffffffffffffff1673ffffffffffffffffffffffffffffffffffffffff163373ffffffffffffffffffffffffffffffffffffffff16146105c6576040517f08c379a00000000000000000000000000000000000000000000000000000000081526004016105bd9061197a565b60405180910390fd5b5f805f9054906101000a900473ffffffffffffffffffffffffffffffffffffffff169050335f806101000a81548173ffffffffffffffffffffffffffffffffffffffff021916908373ffffffffffffffffffffffffffffffffffffffff1602179055505f60015f6101000a81548173ffffffffffffffffffffffffffffffffffffffff021916908373ffffffffffffffffffffffffffffffffffffffff1602179055503373ffffffffffffffffffffffffffffffffffffffff168173ffffffffffffffffffffffffffffffffffffffff167f8be0079c531659141344cd1fd0a4f28419497f9722a3daafe3b4186f6b6457e060405160405180910390a350565b600460069054906101000a900463ffffffff1681565b60055f9054906101000a900473ffffffffffffffffffffffffffffffffffffffff1681565b5f805f9054906101000a900473ffffffffffffffffffffffffffffffffffffffff16905090565b7f000000000000000000000000000000000000000000000000000000000000000081565b60048054906101000a900461ffff1681565b600760019054906101000a900460ff166107ad576040517f08c379a00000000000000000000000000000000000000000000000000000000081526004016107a4906119e2565b60405180910390fd5b60085434146107f1576040517f08c379a00000000000000000000000000000000000000000000000000000000081526004016107e890611a70565b60405180910390fd5b60075f9054906101000a900460ff1660ff1660068054905010610849576040517f08c379a000000000000000000000000000000000000000000000000000000000815260040161084090611ad8565b60405180910390fd5b600633908060018154018082558091505060019003905f5260205f20015f9091909190916101000a81548173ffffffffffffffffffffffffffffffffffffffff021916908373ffffffffffffffffffffffffffffffffffffffff1602179055507f87969bc7faf902221a147b95ceba76e011c5efb0339a0a8ee7a2bb82d9cfbbd6600954336040516108dc929190611af6565b60405180910390a160075f9054906101000a900460ff1660ff166006805490500361090b57610909610e19565b505b565b60095481565b61091b610f0a565b600760019054906101000a900460ff1661096a576040517f08c379a000000000000000000000000000000000000000000000000000000000815260040161096190611b67565b60405180910390fd5b5f60085490505f5b600680549050811015610a76575f6006828154811061099457610993611b85565b5b905f5260205f20015f9054906101000a900473ffffffffffffffffffffffffffffffffffffffff1673ffffffffffffffffffffffffffffffffffffffff16836040516109df90611bdf565b5f6040518083038185875af1925050503d805f8114610a19576040519150601f19603f3d011682016040523d82523d5f602084013e610a1e565b606091505b5050905080610a62576040517f08c379a0000000000000000000000000000000000000000000000000000000008152600401610a5990611c3d565b60405180910390fd5b508080610a6e90611c88565b915050610972565b505f600760016101000a81548160ff0219169083151502179055507f681705fdbd93dba3b679fd712577e9a86d57c5551c520f8c74857deb57f9623f600954604051610ac29190611432565b60405180910390a160065f610ad791906113e1565b50565b60025481565b5f7f0000000000000000000000000000000000000000000000000000000000000000905090565b610b0f610f0a565b600760019054906101000a900460ff1615610b5f576040517f08c379a0000000000000000000000000000000000000000000000000000000008152600401610b5690611d19565b60405180910390fd5b5f8260ff1611610ba4576040517f08c379a0000000000000000000000000000000000000000000000000000000008152600401610b9b90611da7565b60405180910390fd5b60065f610bb191906113e1565b8160075f6101000a81548160ff021916908360ff1602179055506001600760016101000a81548160ff02191690831515021790555080600881905550600160095f828254610bff9190611dc5565b925050819055507f10a7675bf1b19b67834ca5a59866847fd31c62cdfc8e9466039e6b8e088e15ae60095460075f9054906101000a900460ff16600854604051610c4b93929190611e07565b60405180910390a15050565b610c5f610f0a565b610c6881610f99565b50565b60068181548110610c7a575f80fd5b905f5260205f20015f915054906101000a900473ffffffffffffffffffffffffffffffffffffffff1681565b5f600680549050825f81518110610cc057610cbf611b85565b5b6020026020010151610cd29190611e69565b90505f60068281548110610ce957610ce8611b85565b5b905f5260205f20015f9054906101000a900473ffffffffffffffffffffffffffffffffffffffff1690505f8173ffffffffffffffffffffffffffffffffffffffff1647604051610d3890611bdf565b5f6040518083038185875af1925050503d805f8114610d72576040519150601f19603f3d011682016040523d82523d5f602084013e610d77565b606091505b5050905080610dbb576040517f08c379a0000000000000000000000000000000000000000000000000000000008152600401610db290611ee3565b60405180910390fd5b7ff1898de79c348962fab7695532341027e5bceb0ea2a8785790fa7d7efeeee1296009548387604051610df093929190611f01565b60405180910390a15f600760016101000a81548160ff0219169083151502179055505050505050565b5f806004600a9054906101000a900473ffffffffffffffffffffffffffffffffffffffff1690506002548173ffffffffffffffffffffffffffffffffffffffff166370a08231306040518263ffffffff1660e01b8152600401610e7c919061166f565b602060405180830381865afa158015610e97573d5f803e3d5ffd5b505050506040513d601f19601f82011682018060405250810190610ebb9190611f4a565b1015610efc576040517f08c379a0000000000000000000000000000000000000000000000000000000008152600401610ef390611fbf565b60405180910390fd5b610f046110c3565b91505090565b5f8054906101000a900473ffffffffffffffffffffffffffffffffffffffff1673ffffffffffffffffffffffffffffffffffffffff163373ffffffffffffffffffffffffffffffffffffffff1614610f97576040517f08c379a0000000000000000000000000000000000000000000000000000000008152600401610f8e90612027565b60405180910390fd5b565b3373ffffffffffffffffffffffffffffffffffffffff168173ffffffffffffffffffffffffffffffffffffffff1603611007576040517f08c379a0000000000000000000000000000000000000000000000000000000008152600401610ffe9061208f565b60405180910390fd5b8060015f6101000a81548173ffffffffffffffffffffffffffffffffffffffff021916908373ffffffffffffffffffffffffffffffffffffffff1602179055508073ffffffffffffffffffffffffffffffffffffffff165f8054906101000a900473ffffffffffffffffffffffffffffffffffffffff1673ffffffffffffffffffffffffffffffffffffffff167fed8889f560326eb138920d842192f0eb3dd22b4f139c87a2c57538e05bae127860405160405180910390a350565b5f806110de60405180602001604052805f1515815250611130565b90505f8061111f60045f9054906101000a900463ffffffff1660048054906101000a900461ffff16600460069054906101000a900463ffffffff16866111c8565b809250819350505081935050505090565b60607f92fd13387c7fe7befbc38d303d6468778fb9731bc4583f17d92989c6fcfdeaaa8260405160240161116491906120d6565b604051602081830303815290604052907bffffffffffffffffffffffffffffffffffffffffffffffffffffffff19166020820180517bffffffffffffffffffffffffffffffffffffffffffffffffffffffff83818316178352505050509050919050565b5f807f000000000000000000000000000000000000000000000000000000000000000073ffffffffffffffffffffffffffffffffffffffff166327e5c50a87866040518363ffffffff1660e01b81526004016112259291906120ef565b602060405180830381865afa158015611240573d5f803e3d5ffd5b505050506040513d601f19601f820116820180604052508101906112649190611f4a565b90507f000000000000000000000000000000000000000000000000000000000000000073ffffffffffffffffffffffffffffffffffffffff16634000aea07f000000000000000000000000000000000000000000000000000000000000000083898989896040516020016112db9493929190612190565b6040516020818303038152906040526040518463ffffffff1660e01b8152600401611308939291906121da565b6020604051808303815f875af1158015611324573d5f803e3d5ffd5b505050506040513d601f19601f820116820180604052508101906113489190612240565b507f000000000000000000000000000000000000000000000000000000000000000073ffffffffffffffffffffffffffffffffffffffff1663fc2a88c36040518163ffffffff1660e01b8152600401602060405180830381865afa1580156113b2573d5f803e3d5ffd5b505050506040513d601f19601f820116820180604052508101906113d69190611f4a565b915094509492505050565b5080545f8255905f5260205f20908101906113fc91906113ff565b50565b5b80821115611416575f815f905550600101611400565b5090565b5f819050919050565b61142c8161141a565b82525050565b5f6020820190506114455f830184611423565b92915050565b5f604051905090565b5f80fd5b5f80fd5b6114658161141a565b811461146f575f80fd5b50565b5f813590506114808161145c565b92915050565b5f80fd5b5f601f19601f8301169050919050565b7f4e487b71000000000000000000000000000000000000000000000000000000005f52604160045260245ffd5b6114d08261148a565b810181811067ffffffffffffffff821117156114ef576114ee61149a565b5b80604052505050565b5f61150161144b565b905061150d82826114c7565b919050565b5f67ffffffffffffffff82111561152c5761152b61149a565b5b602082029050602081019050919050565b5f80fd5b5f61155361154e84611512565b6114f8565b905080838252602082019050602084028301858111156115765761157561153d565b5b835b8181101561159f578061158b8882611472565b845260208401935050602081019050611578565b5050509392505050565b5f82601f8301126115bd576115bc611486565b5b81356115cd848260208601611541565b91505092915050565b5f80604083850312156115ec576115eb611454565b5b5f6115f985828601611472565b925050602083013567ffffffffffffffff81111561161a57611619611458565b5b611626858286016115a9565b9150509250929050565b5f73ffffffffffffffffffffffffffffffffffffffff82169050919050565b5f61165982611630565b9050919050565b6116698161164f565b82525050565b5f6020820190506116825f830184611660565b92915050565b5f63ffffffff82169050919050565b6116a081611688565b82525050565b5f6020820190506116b95f830184611697565b92915050565b5f8115159050919050565b6116d3816116bf565b82525050565b5f6020820190506116ec5f8301846116ca565b92915050565b5f819050919050565b611704816116f2565b82525050565b5f60208201905061171d5f8301846116fb565b92915050565b5f819050919050565b5f61174661174161173c84611630565b611723565b611630565b9050919050565b5f6117578261172c565b9050919050565b5f6117688261174d565b9050919050565b6117788161175e565b82525050565b5f6020820190506117915f83018461176f565b92915050565b5f61ffff82169050919050565b6117ad81611797565b82525050565b5f6020820190506117c65f8301846117a4565b92915050565b5f6117d68261174d565b9050919050565b6117e6816117cc565b82525050565b5f6020820190506117ff5f8301846117dd565b92915050565b5f60ff82169050919050565b61181a81611805565b8114611824575f80fd5b50565b5f8135905061183581611811565b92915050565b5f806040838503121561185157611850611454565b5b5f61185e85828601611827565b925050602061186f85828601611472565b9150509250929050565b6118828161164f565b811461188c575f80fd5b50565b5f8135905061189d81611879565b92915050565b5f602082840312156118b8576118b7611454565b5b5f6118c58482850161188f565b91505092915050565b5f602082840312156118e3576118e2611454565b5b5f6118f084828501611472565b91505092915050565b5f60408201905061190c5f830185611660565b6119196020830184611660565b9392505050565b5f82825260208201905092915050565b7f4d7573742062652070726f706f736564206f776e6572000000000000000000005f82015250565b5f611964601683611920565b915061196f82611930565b602082019050919050565b5f6020820190508181035f83015261199181611958565b9050919050565b7f47616d6520686173206e6f74206265656e2073746172746564207965740000005f82015250565b5f6119cc601d83611920565b91506119d782611998565b602082019050919050565b5f6020820190508181035f8301526119f9816119c0565b9050919050565b7f56616c75652073656e74206973206e6f7420657175616c20746f20656e7472795f8201527f4665650000000000000000000000000000000000000000000000000000000000602082015250565b5f611a5a602383611920565b9150611a6582611a00565b604082019050919050565b5f6020820190508181035f830152611a8781611a4e565b9050919050565b7f47616d652069732066756c6c00000000000000000000000000000000000000005f82015250565b5f611ac2600c83611920565b9150611acd82611a8e565b602082019050919050565b5f6020820190508181035f830152611aef81611ab6565b9050919050565b5f604082019050611b095f830185611423565b611b166020830184611660565b9392505050565b7f4e6f206163746976652067616d650000000000000000000000000000000000005f82015250565b5f611b51600e83611920565b9150611b5c82611b1d565b602082019050919050565b5f6020820190508181035f830152611b7e81611b45565b9050919050565b7f4e487b71000000000000000000000000000000000000000000000000000000005f52603260045260245ffd5b5f81905092915050565b50565b5f611bca5f83611bb2565b9150611bd582611bbc565b5f82019050919050565b5f611be982611bbf565b9150819050919050565b7f526566756e64206661696c6564000000000000000000000000000000000000005f82015250565b5f611c27600d83611920565b9150611c3282611bf3565b602082019050919050565b5f6020820190508181035f830152611c5481611c1b565b9050919050565b7f4e487b71000000000000000000000000000000000000000000000000000000005f52601160045260245ffd5b5f611c928261141a565b91507fffffffffffffffffffffffffffffffffffffffffffffffffffffffffffffffff8203611cc457611cc3611c5b565b5b600182019050919050565b7f47616d652069732063757272656e746c792072756e6e696e67000000000000005f82015250565b5f611d03601983611920565b9150611d0e82611ccf565b602082019050919050565b5f6020820190508181035f830152611d3081611cf7565b9050919050565b7f596f752063616e6e6f742063726561746520612067616d652077697468206d615f8201527f7820706c6179657273206c696d697420657175616c2030000000000000000000602082015250565b5f611d91603783611920565b9150611d9c82611d37565b604082019050919050565b5f6020820190508181035f830152611dbe81611d85565b9050919050565b5f611dcf8261141a565b9150611dda8361141a565b9250828201905080821115611df257611df1611c5b565b5b92915050565b611e0181611805565b82525050565b5f606082019050611e1a5f830186611423565b611e276020830185611df8565b611e346040830184611423565b949350505050565b7f4e487b71000000000000000000000000000000000000000000000000000000005f52601260045260245ffd5b5f611e738261141a565b9150611e7e8361141a565b925082611e8e57611e8d611e3c565b5b828206905092915050565b7f4661696c656420746f2073656e642045746865720000000000000000000000005f82015250565b5f611ecd601483611920565b9150611ed882611e99565b602082019050919050565b5f6020820190508181035f830152611efa81611ec1565b9050919050565b5f606082019050611f145f830186611423565b611f216020830185611660565b611f2e6040830184611423565b949350505050565b5f81519050611f448161145c565b92915050565b5f60208284031215611f5f57611f5e611454565b5b5f611f6c84828501611f36565b91505092915050565b7f4e6f7420656e6f756768204c494e4b00000000000000000000000000000000005f82015250565b5f611fa9600f83611920565b9150611fb482611f75565b602082019050919050565b5f6020820190508181035f830152611fd681611f9d565b9050919050565b7f4f6e6c792063616c6c61626c65206279206f776e6572000000000000000000005f82015250565b5f612011601683611920565b915061201c82611fdd565b602082019050919050565b5f6020820190508181035f83015261203e81612005565b9050919050565b7f43616e6e6f74207472616e7366657220746f2073656c660000000000000000005f82015250565b5f612079601783611920565b915061208482612045565b602082019050919050565b5f6020820190508181035f8301526120a68161206d565b9050919050565b6120b6816116bf565b82525050565b602082015f8201516120d05f8501826120ad565b50505050565b5f6020820190506120e95f8301846120bc565b92915050565b5f6040820190506121025f830185611697565b61210f6020830184611697565b9392505050565b5f81519050919050565b5f82825260208201905092915050565b5f5b8381101561214d578082015181840152602081019050612132565b5f8484015250505050565b5f61216282612116565b61216c8185612120565b935061217c818560208601612130565b6121858161148a565b840191505092915050565b5f6080820190506121a35f830187611697565b6121b060208301866117a4565b6121bd6040830185611697565b81810360608301526121cf8184612158565b905095945050505050565b5f6060820190506121ed5f830186611660565b6121fa6020830185611423565b818103604083015261220c8184612158565b9050949350505050565b61221f816116bf565b8114612229575f80fd5b50565b5f8151905061223a81612216565b92915050565b5f6020828403121561225557612254611454565b5b5f6122628482850161222c565b9150509291505056fea26469706673582212200a76acab725681e5f2c7b533597a6d10ba9dd6da18e7a246a0d6979f2656fe4664736f6c63430008140033","linkReferences":{}},"methodIdentifiers":{"acceptOwnership()":"79ba5097","callbackGasLimit()":"24f74697","cancelGame()":"d84c1ac9","fee()":"ddca3f43","gameId()":"d7c81b55","gameStarted()":"5e123ce4","getBalance()":"12065fe0","getLinkToken()":"e76d5168","i_vrfV2PlusWrapper()":"9ed0868d","joinGame()":"d4f77b1c","keyHash()":"61728f39","linkAddress()":"235cea98","numWords()":"7ccfd7fc","owner()":"8da5cb5b","players(uint256)":"f71d96cb","rawFulfillRandomWords(uint256,uint256[])":"1fe543e3","requestConfirmations()":"b0fb162f","startGame(uint8,uint256)":"e849c38e","transferOwnership(address)":"f2fde38b","wrapperAddress()":"7df8b802"},"id":23}