{"abi":[{"type":"constructor","inputs":[{"name":"baseURI","type":"string","internalType":"string"}],"stateMutability":"nonpayable"},{"type":"fallback","stateMutability":"payable"},{"type":"receive","stateMutability":"payable"},{"type":"function","name":"_paused","inputs":[],"outputs":[{"name":"","type":"bool","internalType":"bool"}],"stateMutability":"view"},{"type":"function","name":"_price","inputs":[],"outputs":[{"name":"","type":"uint256","internalType":"uint256"}],"stateMutability":"view"},{"type":"function","name":"approve","inputs":[{"name":"to","type":"address","internalType":"address"},{"name":"tokenId","type":"uint256","internalType":"uint256"}],"outputs":[],"stateMutability":"nonpayable"},{"type":"function","name":"balanceOf","inputs":[{"name":"owner","type":"address","internalType":"address"}],"outputs":[{"name":"","type":"uint256","internalType":"uint256"}],"stateMutability":"view"},{"type":"function","name":"getApproved","inputs":[{"name":"tokenId","type":"uint256","internalType":"uint256"}],"outputs":[{"name":"","type":"address","internalType":"address"}],"stateMutability":"view"},{"type":"function","name":"isApprovedForAll","inputs":[{"name":"owner","type":"address","internalType":"address"},{"name":"operator","type":"address","internalType":"address"}],"outputs":[{"name":"","type":"bool","internalType":"bool"}],"stateMutability":"view"},{"type":"function","name":"maxTokenIds","inputs":[],"outputs":[{"name":"","type":"uint256","internalType":"uint256"}],"stateMutability":"view"},{"type":"function","name":"mint","inputs":[],"outputs":[],"stateMutability":"payable"},{"type":"function","name":"name","inputs":[],"outputs":[{"name":"","type":"string","internalType":"string"}],"stateMutability":"view"},{"type":"function","name":"owner","inputs":[],"outputs":[{"name":"","type":"address","internalType":"address"}],"stateMutability":"view"},{"type":"function","name":"ownerOf","inputs":[{"name":"tokenId","type":"uint256","internalType":"uint256"}],"outputs":[{"name":"","type":"address","internalType":"address"}],"stateMutability":"view"},{"type":"function","name":"renounceOwnership","inputs":[],"outputs":[],"stateMutability":"nonpayable"},{"type":"function","name":"safeTransferFrom","inputs":[{"name":"from","type":"address","internalType":"address"},{"name":"to","type":"address","internalType":"address"},{"name":"tokenId","type":"uint256","internalType":"uint256"}],"outputs":[],"stateMutability":"nonpayable"},{"type":"function","name":"safeTransferFrom","inputs":[{"name":"from","type":"address","internalType":"address"},{"name":"to","type":"address","internalType":"address"},{"name":"tokenId","type":"uint256","internalType":"uint256"},{"name":"data","type":"bytes","internalType":"bytes"}],"outputs":[],"stateMutability":"nonpayable"},{"type":"function","name":"setApprovalForAll","inputs":[{"name":"operator","type":"address","internalType":"address"},{"name":"approved","type":"bool","internalType":"bool"}],"outputs":[],"stateMutability":"nonpayable"},{"type":"function","name":"setPaused","inputs":[{"name":"val","type":"bool","internalType":"bool"}],"outputs":[],"stateMutability":"nonpayable"},{"type":"function","name":"supportsInterface","inputs":[{"name":"interfaceId","type":"bytes4","internalType":"bytes4"}],"outputs":[{"name":"","type":"bool","internalType":"bool"}],"stateMutability":"view"},{"type":"function","name":"symbol","inputs":[],"outputs":[{"name":"","type":"string","internalType":"string"}],"stateMutability":"view"},{"type":"function","name":"tokenByIndex","inputs":[{"name":"index","type":"uint256","internalType":"uint256"}],"outputs":[{"name":"","type":"uint256","internalType":"uint256"}],"stateMutability":"view"},{"type":"function","name":"tokenIds","inputs":[],"outputs":[{"name":"","type":"uint256","internalType":"uint256"}],"stateMutability":"view"},{"type":"function","name":"tokenOfOwnerByIndex","inputs":[{"name":"owner","type":"address","internalType":"address"},{"name":"index","type":"uint256","internalType":"uint256"}],"outputs":[{"name":"","type":"uint256","internalType":"uint256"}],"stateMutability":"view"},{"type":"function","name":"tokenURI","inputs":[{"name":"tokenId","type":"uint256","internalType":"uint256"}],"outputs":[{"name":"","type":"string","internalType":"string"}],"stateMutability":"view"},{"type":"function","name":"totalSupply","inputs":[],"outputs":[{"name":"","type":"uint256","internalType":"uint256"}],"stateMutability":"view"},{"type":"function","name":"transferFrom","inputs":[{"name":"from","type":"address","internalType":"address"},{"name":"to","type":"address","internalType":"address"},{"name":"tokenId","type":"uint256","internalType":"uint256"}],"outputs":[],"stateMutability":"nonpayable"},{"type":"function","name":"transferOwnership","inputs":[{"name":"newOwner","type":"address","internalType":"address"}],"outputs":[],"stateMutability":"nonpayable"},{"type":"function","name":"withdraw","inputs":[],"outputs":[],"stateMutability":"nonpayable"},{"type":"event","name":"Approval","inputs":[{"name":"owner","type":"address","indexed":true,"internalType":"address"},{"name":"approved","type":"address","indexed":true,"internalType":"address"},{"name":"tokenId","type":"uint256","indexed":true,"internalType":"uint256"}],"anonymous":false},{"type":"event","name":"ApprovalForAll","inputs":[{"name":"owner","type":"address","indexed":true,"internalType":"address"},{"name":"operator","type":"address","indexed":true,"internalType":"address"},{"name":"approved","type":"bool","indexed":false,"internalType":"bool"}],"anonymous":false},{"type":"event","name":"OwnershipTransferred","inputs":[{"name":"previousOwner","type":"address","indexed":true,"internalType":"address"},{"name":"newOwner","type":"address","indexed":true,"internalType":"address"}],"anonymous":false},{"type":"event","name":"Transfer","inputs":[{"name":"from","type":"address","indexed":true,"internalType":"address"},{"name":"to","type":"address","indexed":true,"internalType":"address"},{"name":"tokenId","type":"uint256","indexed":true,"internalType":"uint256"}],"anonymous":false},{"type":"error","name":"ERC721EnumerableForbiddenBatchMint","inputs":[]},{"type":"error","name":"ERC721IncorrectOwner","inputs":[{"name":"sender","type":"address","internalType":"address"},{"name":"tokenId","type":"uint256","internalType":"uint256"},{"name":"owner","type":"address","internalType":"address"}]},{"type":"error","name":"ERC721InsufficientApproval","inputs":[{"name":"operator","type":"address","internalType":"address"},{"name":"tokenId","type":"uint256","internalType":"uint256"}]},{"type":"error","name":"ERC721InvalidApprover","inputs":[{"name":"approver","type":"address","internalType":"address"}]},{"type":"error","name":"ERC721InvalidOperator","inputs":[{"name":"operator","type":"address","internalType":"address"}]},{"type":"error","name":"ERC721InvalidOwner","inputs":[{"name":"owner","type":"address","internalType":"address"}]},{"type":"error","name":"ERC721InvalidReceiver","inputs":[{"name":"receiver","type":"address","internalType":"address"}]},{"type":"error","name":"ERC721InvalidSender","inputs":[{"name":"sender","type":"address","internalType":"address"}]},{"type":"error","name":"ERC721NonexistentToken","inputs":[{"name":"tokenId","type":"uint256","internalType":"uint256"}]},{"type":"error","name":"ERC721OutOfBoundsIndex","inputs":[{"name":"owner","type":"address","internalType":"address"},{"name":"index","type":"uint256","internalType":"uint256"}]},{"type":"error","name":"OwnableInvalidOwner","inputs":[{"name":"owner","type":"address","internalType":"address"}]},{"type":"error","name":"OwnableUnauthorizedAccount","inputs":[{"name":"account","type":"address","internalType":"address"}]}],"bytecode":{"object":"0x6080604052662386f26fc10000600c55600a600e5534801562000020575f80fd5b50604051620035e5380380620035e58339818101604052810190620000469190620003be565b336040518060400160405280600881526020017f4c573350756e6b730000000000000000000000000000000000000000000000008152506040518060400160405280600481526020017f4c57335000000000000000000000000000000000000000000000000000000000815250815f9081620000c3919062000644565b508060019081620000d5919062000644565b5050505f73ffffffffffffffffffffffffffffffffffffffff168173ffffffffffffffffffffffffffffffffffffffff16036200014b575f6040517f1e4fbdf70000000000000000000000000000000000000000000000000000000081526004016200014291906200076b565b60405180910390fd5b6200015c816200017660201b60201c565b5080600b90816200016e919062000644565b505062000786565b5f600a5f9054906101000a900473ffffffffffffffffffffffffffffffffffffffff16905081600a5f6101000a81548173ffffffffffffffffffffffffffffffffffffffff021916908373ffffffffffffffffffffffffffffffffffffffff1602179055508173ffffffffffffffffffffffffffffffffffffffff168173ffffffffffffffffffffffffffffffffffffffff167f8be0079c531659141344cd1fd0a4f28419497f9722a3daafe3b4186f6b6457e060405160405180910390a35050565b5f604051905090565b5f80fd5b5f80fd5b5f80fd5b5f80fd5b5f601f19601f8301169050919050565b7f4e487b71000000000000000000000000000000000000000000000000000000005f52604160045260245ffd5b6200029a8262000252565b810181811067ffffffffffffffff82111715620002bc57620002bb62000262565b5b80604052505050565b5f620002d062000239565b9050620002de82826200028f565b919050565b5f67ffffffffffffffff8211156200030057620002ff62000262565b5b6200030b8262000252565b9050602081019050919050565b5f5b83811015620003375780820151818401526020810190506200031a565b5f8484015250505050565b5f620003586200035284620002e3565b620002c5565b9050828152602081018484840111156200037757620003766200024e565b5b6200038484828562000318565b509392505050565b5f82601f830112620003a357620003a26200024a565b5b8151620003b584826020860162000342565b91505092915050565b5f60208284031215620003d657620003d562000242565b5b5f82015167ffffffffffffffff811115620003f657620003f562000246565b5b62000404848285016200038c565b91505092915050565b5f81519050919050565b7f4e487b71000000000000000000000000000000000000000000000000000000005f52602260045260245ffd5b5f60028204905060018216806200045c57607f821691505b60208210810362000472576200047162000417565b5b50919050565b5f819050815f5260205f209050919050565b5f6020601f8301049050919050565b5f82821b905092915050565b5f60088302620004d67fffffffffffffffffffffffffffffffffffffffffffffffffffffffffffffffff8262000499565b620004e2868362000499565b95508019841693508086168417925050509392505050565b5f819050919050565b5f819050919050565b5f6200052c620005266200052084620004fa565b62000503565b620004fa565b9050919050565b5f819050919050565b62000547836200050c565b6200055f620005568262000533565b848454620004a5565b825550505050565b5f90565b6200057562000567565b620005828184846200053c565b505050565b5b81811015620005a9576200059d5f826200056b565b60018101905062000588565b5050565b601f821115620005f857620005c28162000478565b620005cd846200048a565b81016020851015620005dd578190505b620005f5620005ec856200048a565b83018262000587565b50505b505050565b5f82821c905092915050565b5f6200061a5f1984600802620005fd565b1980831691505092915050565b5f62000634838362000609565b9150826002028217905092915050565b6200064f826200040d565b67ffffffffffffffff8111156200066b576200066a62000262565b5b62000677825462000444565b62000684828285620005ad565b5f60209050601f831160018114620006ba575f8415620006a5578287015190505b620006b1858262000627565b86555062000720565b601f198416620006ca8662000478565b5f5b82811015620006f357848901518255600182019150602085019450602081019050620006cc565b868310156200071357848901516200070f601f89168262000609565b8355505b6001600288020188555050505b505050505050565b5f73ffffffffffffffffffffffffffffffffffffffff82169050919050565b5f620007538262000728565b9050919050565b620007658162000747565b82525050565b5f602082019050620007805f8301846200075a565b92915050565b612e5180620007945f395ff3fe608060405260043610610184575f3560e01c80634f6ccce7116100d05780638da5cb5b11610089578063b88d4fde11610063578063b88d4fde14610543578063c87b56dd1461056b578063e985e9c5146105a7578063f2fde38b146105e35761018b565b80638da5cb5b146104c757806395d89b41146104f1578063a22cb4651461051b5761018b565b80634f6ccce7146103a95780635f769621146103e55780636352211e1461040f57806370a082311461044b578063714cff5614610487578063715018a6146104b15761018b565b806316c61ccc1161013d57806323b872dd1161011757806323b872dd146103075780632f745c591461032f5780633ccfd60b1461036b57806342842e0e146103815761018b565b806316c61ccc1461028957806318160ddd146102b3578063235b6ea1146102dd5761018b565b806301ffc9a71461018d57806306fdde03146101c9578063081812fc146101f3578063095ea7b31461022f5780631249c58b1461025757806316c38b3c146102615761018b565b3661018b57005b005b348015610198575f80fd5b506101b360048036038101906101ae9190612306565b61060b565b6040516101c0919061234b565b60405180910390f35b3480156101d4575f80fd5b506101dd610684565b6040516101ea91906123ee565b60405180910390f35b3480156101fe575f80fd5b5061021960048036038101906102149190612441565b610713565b60405161022691906124ab565b60405180910390f35b34801561023a575f80fd5b50610255600480360381019061025091906124ee565b61072e565b005b61025f610744565b005b34801561026c575f80fd5b5061028760048036038101906102829190612556565b610845565b005b348015610294575f80fd5b5061029d610869565b6040516102aa919061234b565b60405180910390f35b3480156102be575f80fd5b506102c761087b565b6040516102d49190612590565b60405180910390f35b3480156102e8575f80fd5b506102f1610887565b6040516102fe9190612590565b60405180910390f35b348015610312575f80fd5b5061032d600480360381019061032891906125a9565b61088d565b005b34801561033a575f80fd5b50610355600480360381019061035091906124ee565b61098c565b6040516103629190612590565b60405180910390f35b348015610376575f80fd5b5061037f610a30565b005b34801561038c575f80fd5b506103a760048036038101906103a291906125a9565b610af4565b005b3480156103b4575f80fd5b506103cf60048036038101906103ca9190612441565b610b13565b6040516103dc9190612590565b60405180910390f35b3480156103f0575f80fd5b506103f9610b85565b6040516104069190612590565b60405180910390f35b34801561041a575f80fd5b5061043560048036038101906104309190612441565b610b8b565b60405161044291906124ab565b60405180910390f35b348015610456575f80fd5b50610471600480360381019061046c91906125f9565b610b9c565b60405161047e9190612590565b60405180910390f35b348015610492575f80fd5b5061049b610c52565b6040516104a89190612590565b60405180910390f35b3480156104bc575f80fd5b506104c5610c58565b005b3480156104d2575f80fd5b506104db610c6b565b6040516104e891906124ab565b60405180910390f35b3480156104fc575f80fd5b50610505610c93565b60405161051291906123ee565b60405180910390f35b348015610526575f80fd5b50610541600480360381019061053c9190612624565b610d23565b005b34801561054e575f80fd5b506105696004803603810190610564919061278e565b610d39565b005b348015610576575f80fd5b50610591600480360381019061058c9190612441565b610d5e565b60405161059e91906123ee565b60405180910390f35b3480156105b2575f80fd5b506105cd60048036038101906105c8919061280e565b610e30565b6040516105da919061234b565b60405180910390f35b3480156105ee575f80fd5b50610609600480360381019061060491906125f9565b610ebe565b005b5f7f780e9d63000000000000000000000000000000000000000000000000000000007bffffffffffffffffffffffffffffffffffffffffffffffffffffffff1916827bffffffffffffffffffffffffffffffffffffffffffffffffffffffff1916148061067d575061067c82610f42565b5b9050919050565b60605f805461069290612879565b80601f01602080910402602001604051908101604052809291908181526020018280546106be90612879565b80156107095780601f106106e057610100808354040283529160200191610709565b820191905f5260205f20905b8154815290600101906020018083116106ec57829003601f168201915b5050505050905090565b5f61071d82611023565b50610727826110a9565b9050919050565b610740828261073b6110e2565b6110e9565b5050565b600d5f9054906101000a900460ff1615610793576040517f08c379a000000000000000000000000000000000000000000000000000000000815260040161078a906128f3565b60405180910390fd5b600e54600f54106107d9576040517f08c379a00000000000000000000000000000000000000000000000000000000081526004016107d09061295b565b60405180910390fd5b600c5434101561081e576040517f08c379a0000000000000000000000000000000000000000000000000000000008152600401610815906129c3565b60405180910390fd5b6001600f5f8282546108309190612a0e565b9250508190555061084333600f546110fb565b565b61084d611118565b80600d5f6101000a81548160ff02191690831515021790555050565b600d5f9054906101000a900460ff1681565b5f600880549050905090565b600c5481565b5f73ffffffffffffffffffffffffffffffffffffffff168273ffffffffffffffffffffffffffffffffffffffff16036108fd575f6040517f64a0ae920000000000000000000000000000000000000000000000000000000081526004016108f491906124ab565b60405180910390fd5b5f610910838361090b6110e2565b61119f565b90508373ffffffffffffffffffffffffffffffffffffffff168173ffffffffffffffffffffffffffffffffffffffff1614610986578382826040517f64283d7b00000000000000000000000000000000000000000000000000000000815260040161097d93929190612a41565b60405180910390fd5b50505050565b5f61099683610b9c565b82106109db5782826040517fa57d13dc0000000000000000000000000000000000000000000000000000000081526004016109d2929190612a76565b60405180910390fd5b60065f8473ffffffffffffffffffffffffffffffffffffffff1673ffffffffffffffffffffffffffffffffffffffff1681526020019081526020015f205f8381526020019081526020015f2054905092915050565b610a38611118565b5f610a41610c6b565b90505f4790505f8273ffffffffffffffffffffffffffffffffffffffff1682604051610a6c90612aca565b5f6040518083038185875af1925050503d805f8114610aa6576040519150601f19603f3d011682016040523d82523d5f602084013e610aab565b606091505b5050905080610aef576040517f08c379a0000000000000000000000000000000000000000000000000000000008152600401610ae690612b28565b60405180910390fd5b505050565b610b0e83838360405180602001604052805f815250610d39565b505050565b5f610b1c61087b565b8210610b61575f826040517fa57d13dc000000000000000000000000000000000000000000000000000000008152600401610b58929190612a76565b60405180910390fd5b60088281548110610b7557610b74612b46565b5b905f5260205f2001549050919050565b600e5481565b5f610b9582611023565b9050919050565b5f8073ffffffffffffffffffffffffffffffffffffffff168273ffffffffffffffffffffffffffffffffffffffff1603610c0d575f6040517f89c62b64000000000000000000000000000000000000000000000000000000008152600401610c0491906124ab565b60405180910390fd5b60035f8373ffffffffffffffffffffffffffffffffffffffff1673ffffffffffffffffffffffffffffffffffffffff1681526020019081526020015f20549050919050565b600f5481565b610c60611118565b610c695f6112b9565b565b5f600a5f9054906101000a900473ffffffffffffffffffffffffffffffffffffffff16905090565b606060018054610ca290612879565b80601f0160208091040260200160405190810160405280929190818152602001828054610cce90612879565b8015610d195780601f10610cf057610100808354040283529160200191610d19565b820191905f5260205f20905b815481529060010190602001808311610cfc57829003601f168201915b5050505050905090565b610d35610d2e6110e2565b838361137c565b5050565b610d4484848461088d565b610d58610d4f6110e2565b858585856114e5565b50505050565b60605f73ffffffffffffffffffffffffffffffffffffffff16610d8083610b8b565b73ffffffffffffffffffffffffffffffffffffffff1603610dd6576040517f08c379a0000000000000000000000000000000000000000000000000000000008152600401610dcd90612be3565b60405180910390fd5b5f610ddf611691565b90505f815111610dfd5760405180602001604052805f815250610e28565b80610e0784611721565b604051602001610e18929190612c85565b6040516020818303038152906040525b915050919050565b5f60055f8473ffffffffffffffffffffffffffffffffffffffff1673ffffffffffffffffffffffffffffffffffffffff1681526020019081526020015f205f8373ffffffffffffffffffffffffffffffffffffffff1673ffffffffffffffffffffffffffffffffffffffff1681526020019081526020015f205f9054906101000a900460ff16905092915050565b610ec6611118565b5f73ffffffffffffffffffffffffffffffffffffffff168173ffffffffffffffffffffffffffffffffffffffff1603610f36575f6040517f1e4fbdf7000000000000000000000000000000000000000000000000000000008152600401610f2d91906124ab565b60405180910390fd5b610f3f816112b9565b50565b5f7f80ac58cd000000000000000000000000000000000000000000000000000000007bffffffffffffffffffffffffffffffffffffffffffffffffffffffff1916827bffffffffffffffffffffffffffffffffffffffffffffffffffffffff1916148061100c57507f5b5e139f000000000000000000000000000000000000000000000000000000007bffffffffffffffffffffffffffffffffffffffffffffffffffffffff1916827bffffffffffffffffffffffffffffffffffffffffffffffffffffffff1916145b8061101c575061101b826117eb565b5b9050919050565b5f8061102e83611854565b90505f73ffffffffffffffffffffffffffffffffffffffff168173ffffffffffffffffffffffffffffffffffffffff16036110a057826040517f7e2732890000000000000000000000000000000000000000000000000000000081526004016110979190612590565b60405180910390fd5b80915050919050565b5f60045f8381526020019081526020015f205f9054906101000a900473ffffffffffffffffffffffffffffffffffffffff169050919050565b5f33905090565b6110f6838383600161188d565b505050565b611114828260405180602001604052805f815250611a4c565b5050565b6111206110e2565b73ffffffffffffffffffffffffffffffffffffffff1661113e610c6b565b73ffffffffffffffffffffffffffffffffffffffff161461119d576111616110e2565b6040517f118cdaa700000000000000000000000000000000000000000000000000000000815260040161119491906124ab565b60405180910390fd5b565b5f806111ac858585611a6f565b90505f73ffffffffffffffffffffffffffffffffffffffff168173ffffffffffffffffffffffffffffffffffffffff16036111ef576111ea84611c7a565b61122e565b8473ffffffffffffffffffffffffffffffffffffffff168173ffffffffffffffffffffffffffffffffffffffff161461122d5761122c8185611cbe565b5b5b5f73ffffffffffffffffffffffffffffffffffffffff168573ffffffffffffffffffffffffffffffffffffffff160361126f5761126a84611d95565b6112ae565b8473ffffffffffffffffffffffffffffffffffffffff168173ffffffffffffffffffffffffffffffffffffffff16146112ad576112ac8585611e55565b5b5b809150509392505050565b5f600a5f9054906101000a900473ffffffffffffffffffffffffffffffffffffffff16905081600a5f6101000a81548173ffffffffffffffffffffffffffffffffffffffff021916908373ffffffffffffffffffffffffffffffffffffffff1602179055508173ffffffffffffffffffffffffffffffffffffffff168173ffffffffffffffffffffffffffffffffffffffff167f8be0079c531659141344cd1fd0a4f28419497f9722a3daafe3b4186f6b6457e060405160405180910390a35050565b5f73ffffffffffffffffffffffffffffffffffffffff168273ffffffffffffffffffffffffffffffffffffffff16036113ec57816040517f5b08ba180000000000000000000000000000000000000000000000000000000081526004016113e391906124ab565b60405180910390fd5b8060055f8573ffffffffffffffffffffffffffffffffffffffff1673ffffffffffffffffffffffffffffffffffffffff1681526020019081526020015f205f8473ffffffffffffffffffffffffffffffffffffffff1673ffffffffffffffffffffffffffffffffffffffff1681526020019081526020015f205f6101000a81548160ff0219169083151502179055508173ffffffffffffffffffffffffffffffffffffffff168373ffffffffffffffffffffffffffffffffffffffff167f17307eab39ab6107e8899845ad3d59bd9653f200f220920489ca2b5937696c31836040516114d8919061234b565b60405180910390a3505050565b5f8373ffffffffffffffffffffffffffffffffffffffff163b111561168a578273ffffffffffffffffffffffffffffffffffffffff1663150b7a02868685856040518563ffffffff1660e01b81526004016115439493929190612d05565b6020604051808303815f875af192505050801561157e57506040513d601f19601f8201168201806040525081019061157b9190612d63565b60015b6115ff573d805f81146115ac576040519150601f19603f3d011682016040523d82523d5f602084013e6115b1565b606091505b505f8151036115f757836040517f64a0ae920000000000000000000000000000000000000000000000000000000081526004016115ee91906124ab565b60405180910390fd5b805160208201fd5b63150b7a0260e01b7bffffffffffffffffffffffffffffffffffffffffffffffffffffffff1916817bffffffffffffffffffffffffffffffffffffffffffffffffffffffff19161461168857836040517f64a0ae9200000000000000000000000000000000000000000000000000000000815260040161167f91906124ab565b60405180910390fd5b505b5050505050565b6060600b80546116a090612879565b80601f01602080910402602001604051908101604052809291908181526020018280546116cc90612879565b80156117175780601f106116ee57610100808354040283529160200191611717565b820191905f5260205f20905b8154815290600101906020018083116116fa57829003601f168201915b5050505050905090565b60605f600161172f84611ed9565b0190505f8167ffffffffffffffff81111561174d5761174c61266a565b5b6040519080825280601f01601f19166020018201604052801561177f5781602001600182028036833780820191505090505b5090505f82602083010190505b6001156117e0578080600190039150507f3031323334353637383961626364656600000000000000000000000000000000600a86061a8153600a85816117d5576117d4612d8e565b5b0494505f850361178c575b819350505050919050565b5f7f01ffc9a7000000000000000000000000000000000000000000000000000000007bffffffffffffffffffffffffffffffffffffffffffffffffffffffff1916827bffffffffffffffffffffffffffffffffffffffffffffffffffffffff1916149050919050565b5f60025f8381526020019081526020015f205f9054906101000a900473ffffffffffffffffffffffffffffffffffffffff169050919050565b80806118c557505f73ffffffffffffffffffffffffffffffffffffffff168273ffffffffffffffffffffffffffffffffffffffff1614155b156119f7575f6118d484611023565b90505f73ffffffffffffffffffffffffffffffffffffffff168373ffffffffffffffffffffffffffffffffffffffff161415801561193e57508273ffffffffffffffffffffffffffffffffffffffff168173ffffffffffffffffffffffffffffffffffffffff1614155b8015611951575061194f8184610e30565b155b1561199357826040517fa9fbf51f00000000000000000000000000000000000000000000000000000000815260040161198a91906124ab565b60405180910390fd5b81156119f557838573ffffffffffffffffffffffffffffffffffffffff168273ffffffffffffffffffffffffffffffffffffffff167f8c5be1e5ebec7d5bd14f71427d1e84f3dd0314c0f7b2291e5b200ac8c7c3b92560405160405180910390a45b505b8360045f8581526020019081526020015f205f6101000a81548173ffffffffffffffffffffffffffffffffffffffff021916908373ffffffffffffffffffffffffffffffffffffffff16021790555050505050565b611a56838361202a565b611a6a611a616110e2565b5f8585856114e5565b505050565b5f80611a7a84611854565b90505f73ffffffffffffffffffffffffffffffffffffffff168373ffffffffffffffffffffffffffffffffffffffff1614611abb57611aba81848661211d565b5b5f73ffffffffffffffffffffffffffffffffffffffff168173ffffffffffffffffffffffffffffffffffffffff1614611b4657611afa5f855f8061188d565b600160035f8373ffffffffffffffffffffffffffffffffffffffff1673ffffffffffffffffffffffffffffffffffffffff1681526020019081526020015f205f82825403925050819055505b5f73ffffffffffffffffffffffffffffffffffffffff168573ffffffffffffffffffffffffffffffffffffffff1614611bc557600160035f8773ffffffffffffffffffffffffffffffffffffffff1673ffffffffffffffffffffffffffffffffffffffff1681526020019081526020015f205f82825401925050819055505b8460025f8681526020019081526020015f205f6101000a81548173ffffffffffffffffffffffffffffffffffffffff021916908373ffffffffffffffffffffffffffffffffffffffff160217905550838573ffffffffffffffffffffffffffffffffffffffff168273ffffffffffffffffffffffffffffffffffffffff167fddf252ad1be2c89b69c2b068fc378daa952ba7f163c4a11628f55a4df523b3ef60405160405180910390a4809150509392505050565b60088054905060095f8381526020019081526020015f2081905550600881908060018154018082558091505060019003905f5260205f20015f909190919091505550565b5f611cc883610b9c565b90505f60075f8481526020019081526020015f205490505f60065f8673ffffffffffffffffffffffffffffffffffffffff1673ffffffffffffffffffffffffffffffffffffffff1681526020019081526020015f209050828214611d67575f815f8581526020019081526020015f2054905080825f8581526020019081526020015f20819055508260075f8381526020019081526020015f2081905550505b60075f8581526020019081526020015f205f9055805f8481526020019081526020015f205f90555050505050565b5f6001600880549050611da89190612dbb565b90505f60095f8481526020019081526020015f205490505f60088381548110611dd457611dd3612b46565b5b905f5260205f20015490508060088381548110611df457611df3612b46565b5b905f5260205f2001819055508160095f8381526020019081526020015f208190555060095f8581526020019081526020015f205f90556008805480611e3c57611e3b612dee565b5b600190038181905f5260205f20015f9055905550505050565b5f6001611e6184610b9c565b611e6b9190612dbb565b90508160065f8573ffffffffffffffffffffffffffffffffffffffff1673ffffffffffffffffffffffffffffffffffffffff1681526020019081526020015f205f8381526020019081526020015f20819055508060075f8481526020019081526020015f2081905550505050565b5f805f90507a184f03e93ff9f4daa797ed6e38ed64bf6a1f0100000000000000008310611f35577a184f03e93ff9f4daa797ed6e38ed64bf6a1f0100000000000000008381611f2b57611f2a612d8e565b5b0492506040810190505b6d04ee2d6d415b85acef81000000008310611f72576d04ee2d6d415b85acef81000000008381611f6857611f67612d8e565b5b0492506020810190505b662386f26fc100008310611fa157662386f26fc100008381611f9757611f96612d8e565b5b0492506010810190505b6305f5e1008310611fca576305f5e1008381611fc057611fbf612d8e565b5b0492506008810190505b6127108310611fef576127108381611fe557611fe4612d8e565b5b0492506004810190505b60648310612012576064838161200857612007612d8e565b5b0492506002810190505b600a8310612021576001810190505b80915050919050565b5f73ffffffffffffffffffffffffffffffffffffffff168273ffffffffffffffffffffffffffffffffffffffff160361209a575f6040517f64a0ae9200000000000000000000000000000000000000000000000000000000815260040161209191906124ab565b60405180910390fd5b5f6120a683835f61119f565b90505f73ffffffffffffffffffffffffffffffffffffffff168173ffffffffffffffffffffffffffffffffffffffff1614612118575f6040517f73c6ac6e00000000000000000000000000000000000000000000000000000000815260040161210f91906124ab565b60405180910390fd5b505050565b6121288383836121e0565b6121db575f73ffffffffffffffffffffffffffffffffffffffff168373ffffffffffffffffffffffffffffffffffffffff160361219c57806040517f7e2732890000000000000000000000000000000000000000000000000000000081526004016121939190612590565b60405180910390fd5b81816040517f177e802f0000000000000000000000000000000000000000000000000000000081526004016121d2929190612a76565b60405180910390fd5b505050565b5f8073ffffffffffffffffffffffffffffffffffffffff168373ffffffffffffffffffffffffffffffffffffffff161415801561229757508273ffffffffffffffffffffffffffffffffffffffff168473ffffffffffffffffffffffffffffffffffffffff16148061225857506122578484610e30565b5b8061229657508273ffffffffffffffffffffffffffffffffffffffff1661227e836110a9565b73ffffffffffffffffffffffffffffffffffffffff16145b5b90509392505050565b5f604051905090565b5f80fd5b5f80fd5b5f7fffffffff0000000000000000000000000000000000000000000000000000000082169050919050565b6122e5816122b1565b81146122ef575f80fd5b50565b5f81359050612300816122dc565b92915050565b5f6020828403121561231b5761231a6122a9565b5b5f612328848285016122f2565b91505092915050565b5f8115159050919050565b61234581612331565b82525050565b5f60208201905061235e5f83018461233c565b92915050565b5f81519050919050565b5f82825260208201905092915050565b5f5b8381101561239b578082015181840152602081019050612380565b5f8484015250505050565b5f601f19601f8301169050919050565b5f6123c082612364565b6123ca818561236e565b93506123da81856020860161237e565b6123e3816123a6565b840191505092915050565b5f6020820190508181035f83015261240681846123b6565b905092915050565b5f819050919050565b6124208161240e565b811461242a575f80fd5b50565b5f8135905061243b81612417565b92915050565b5f60208284031215612456576124556122a9565b5b5f6124638482850161242d565b91505092915050565b5f73ffffffffffffffffffffffffffffffffffffffff82169050919050565b5f6124958261246c565b9050919050565b6124a58161248b565b82525050565b5f6020820190506124be5f83018461249c565b92915050565b6124cd8161248b565b81146124d7575f80fd5b50565b5f813590506124e8816124c4565b92915050565b5f8060408385031215612504576125036122a9565b5b5f612511858286016124da565b92505060206125228582860161242d565b9150509250929050565b61253581612331565b811461253f575f80fd5b50565b5f813590506125508161252c565b92915050565b5f6020828403121561256b5761256a6122a9565b5b5f61257884828501612542565b91505092915050565b61258a8161240e565b82525050565b5f6020820190506125a35f830184612581565b92915050565b5f805f606084860312156125c0576125bf6122a9565b5b5f6125cd868287016124da565b93505060206125de868287016124da565b92505060406125ef8682870161242d565b9150509250925092565b5f6020828403121561260e5761260d6122a9565b5b5f61261b848285016124da565b91505092915050565b5f806040838503121561263a576126396122a9565b5b5f612647858286016124da565b925050602061265885828601612542565b9150509250929050565b5f80fd5b5f80fd5b7f4e487b71000000000000000000000000000000000000000000000000000000005f52604160045260245ffd5b6126a0826123a6565b810181811067ffffffffffffffff821117156126bf576126be61266a565b5b80604052505050565b5f6126d16122a0565b90506126dd8282612697565b919050565b5f67ffffffffffffffff8211156126fc576126fb61266a565b5b612705826123a6565b9050602081019050919050565b828183375f83830152505050565b5f61273261272d846126e2565b6126c8565b90508281526020810184848401111561274e5761274d612666565b5b612759848285612712565b509392505050565b5f82601f83011261277557612774612662565b5b8135612785848260208601612720565b91505092915050565b5f805f80608085870312156127a6576127a56122a9565b5b5f6127b3878288016124da565b94505060206127c4878288016124da565b93505060406127d58782880161242d565b925050606085013567ffffffffffffffff8111156127f6576127f56122ad565b5b61280287828801612761565b91505092959194509250565b5f8060408385031215612824576128236122a9565b5b5f612831858286016124da565b9250506020612842858286016124da565b9150509250929050565b7f4e487b71000000000000000000000000000000000000000000000000000000005f52602260045260245ffd5b5f600282049050600182168061289057607f821691505b6020821081036128a3576128a261284c565b5b50919050565b7f436f6e74726163742063757272656e746c7920706175736564000000000000005f82015250565b5f6128dd60198361236e565b91506128e8826128a9565b602082019050919050565b5f6020820190508181035f83015261290a816128d1565b9050919050565b7f457863656564206d6178696d756d204c573350756e6b7320737570706c7900005f82015250565b5f612945601e8361236e565b915061295082612911565b602082019050919050565b5f6020820190508181035f83015261297281612939565b9050919050565b7f45746865722073656e74206973206e6f7420636f7272656374000000000000005f82015250565b5f6129ad60198361236e565b91506129b882612979565b602082019050919050565b5f6020820190508181035f8301526129da816129a1565b9050919050565b7f4e487b71000000000000000000000000000000000000000000000000000000005f52601160045260245ffd5b5f612a188261240e565b9150612a238361240e565b9250828201905080821115612a3b57612a3a6129e1565b5b92915050565b5f606082019050612a545f83018661249c565b612a616020830185612581565b612a6e604083018461249c565b949350505050565b5f604082019050612a895f83018561249c565b612a966020830184612581565b9392505050565b5f81905092915050565b50565b5f612ab55f83612a9d565b9150612ac082612aa7565b5f82019050919050565b5f612ad482612aaa565b9150819050919050565b7f4661696c656420746f2073656e642045746865720000000000000000000000005f82015250565b5f612b1260148361236e565b9150612b1d82612ade565b602082019050919050565b5f6020820190508181035f830152612b3f81612b06565b9050919050565b7f4e487b71000000000000000000000000000000000000000000000000000000005f52603260045260245ffd5b7f4552433732314d657461646174613a2055524920717565727920666f72206e6f5f8201527f6e6578697374656e7420746f6b656e0000000000000000000000000000000000602082015250565b5f612bcd602f8361236e565b9150612bd882612b73565b604082019050919050565b5f6020820190508181035f830152612bfa81612bc1565b9050919050565b5f81905092915050565b5f612c1582612364565b612c1f8185612c01565b9350612c2f81856020860161237e565b80840191505092915050565b7f2e6a736f6e0000000000000000000000000000000000000000000000000000005f82015250565b5f612c6f600583612c01565b9150612c7a82612c3b565b600582019050919050565b5f612c908285612c0b565b9150612c9c8284612c0b565b9150612ca782612c63565b91508190509392505050565b5f81519050919050565b5f82825260208201905092915050565b5f612cd782612cb3565b612ce18185612cbd565b9350612cf181856020860161237e565b612cfa816123a6565b840191505092915050565b5f608082019050612d185f83018761249c565b612d25602083018661249c565b612d326040830185612581565b8181036060830152612d448184612ccd565b905095945050505050565b5f81519050612d5d816122dc565b92915050565b5f60208284031215612d7857612d776122a9565b5b5f612d8584828501612d4f565b91505092915050565b7f4e487b71000000000000000000000000000000000000000000000000000000005f52601260045260245ffd5b5f612dc58261240e565b9150612dd08361240e565b9250828203905081811115612de857612de76129e1565b5b92915050565b7f4e487b71000000000000000000000000000000000000000000000000000000005f52603160045260245ffdfea26469706673582212209d5f69fb1984e31a8a13124bb3d4b587d41d2441cd56fdef55567bb1e6f73c1564736f6c63430008140033","linkReferences":{}},"methodIdentifiers":{"_paused()":"16c61ccc","_price()":"235b6ea1","approve(address,uint256)":"095ea7b3","balanceOf(address)":"70a08231","getApproved(uint256)":"081812fc","isApprovedForAll(address,address)":"e985e9c5","maxTokenIds()":"5f769621","mint()":"1249c58b","name()":"06fdde03","owner()":"8da5cb5b","ownerOf(uint256)":"6352211e","renounceOwnership()":"715018a6","safeTransferFrom(address,address,uint256)":"42842e0e","safeTransferFrom(address,address,uint256,bytes)":"b88d4fde","setApprovalForAll(address,bool)":"a22cb465","setPaused(bool)":"16c38b3c","supportsInterface(bytes4)":"01ffc9a7","symbol()":"95d89b41","tokenByIndex(uint256)":"4f6ccce7","tokenIds()":"714cff56","tokenOfOwnerByIndex(address,uint256)":"2f745c59","tokenURI(uint256)":"c87b56dd","totalSupply()":"18160ddd","transferFrom(address,address,uint256)":"23b872dd","transferOwnership(address)":"f2fde38b","withdraw()":"3ccfd60b"},"id":17}